:060000000A128A110C280F
:10000800FE00030EF1000A08F2000A128A11BC2849
:100018000A128A110F28F70183010A128A1184280B
:10002800831603170814081689018316031386011B
:1000380087018801890183120313850186018701DD
:10004800880189017030831603138F040F148112FD
:100058008111011581140114FF30831203138100EB
:100068008B170B17831603130C17831203130C1328
:100078009F14C3309F05831603131F129F12831208
:1000880003131F083F3980389F00831603139F13FB
:100098000330F4009730F300F30B5028F40B50288A
:1000A8005528831203131F14831603138714071587
:1000B800FF3092003F308312031397051708F03979
:1000C8000C389700F0309D051D08F0390C389D005C
:1000D8000F3095000F309B00CF3097051D129D12F1
:1000E8008C100330920412158C1C7B287C287828ED
:1000F8008C108316031387100711F701F70A0800FD
:100108000A128A1114200A128A11831203139F14E7
:100118009F188F2890288C281F0CF500750C0F3914
:10012800003A031D982899289F28F7011F08C3390A
:1001380010389F00AC281F0CF500750C0F39043AD5
:10014800031DA728A828AC28F701F70AC3309F0584
:100158000330F6009730F500F50BB028F60BB02801
:10016800B528831203139F148C280A128A110C28AD
:10017800831203130C1FC128C228DA287703031D32
:10018800C628C728CE281E08F0000310700C7C3E35
:100198009500D9287708031DD228D328D9281E0806
:1001A800F0000310700C7C3E9B000C1372088A0050
:1001B800710E8300FE0E7E0E090000308A000408CE
:1001C800840A82070034FC346034DA34FE3466343E
:0A01D800B634BE34E034FE34F634D1
:08400000FF3FFF3FFF3FFF3FC0
:04400E00D420FF3F7C
:00000001FF
