:060000000A128A1110280B
:10000800FE00030E83120313E0000A08E1007F08D4
:10001800E2000A128A11B12E0A128A1113288312D9
:100028000313E701E801E901EA01EB01EC0183169A
:1000380003179001910192019301940195018301A5
:100048000A128A15692B8316031331088039BB00FD
:100058003108B6003607C100B01F332834283528C8
:1000680041144108031939283A284928410A031D2F
:100078003E283F2847280030B1000030B00000304B
:10008800AF000030AE00B01751280030B10000308A
:10009800B0000030AF000030AE0035088039B6003F
:1000A8003608BB063508B6003607C000B41F5D2801
:1000B8005E285F28401440080319632864287328C1
:1000C800400A031D6828692871280030B5000030EF
:1000D800B4000030B3000030B200B4177B28003001
:1000E800B5000030B4000030B3000030B200400862
:1000F80003197F28802885284108031D842885281E
:100108008E280030B1000030B0000030AF00003061
:10011800AE006B2B2E08A00034080A128A11AF27F4
:100128000A128A11831603132108C7002008C60083
:100138004608B600B701B801B9013908BF00380848
:10014800BE003708BD003608BC004708B600B70136
:10015800B801B9013908C5003808C4003708C30018
:100168003608C2002F08A00033080A128A11AF27E8
:100178000A128A11831603132108C7002008C60033
:100188004608B600B701B801B9013608BC073708F8
:1001980003110318013E0319D228BD0738080311BB
:1001A8000318013E0319D928BE073908031103189B
:1001B800013E0319E028BF074708B600B701B80198
:1001C800B9013608C207370803110318013E03199D
:1001D800EE28C307380803110318013E0319F52850
:1001E800C407390803110318013E0319FC28C50781
:1001F8003008A00032080A128A11AF270A128A11A1
:10020800831603132108C7002008C6004608B60055
:10021800B701B801B9013608BC073708031103183C
:10022800013E03191829BD07380803110318013EB8
:1002380003191F29BE07390803110318013E0319C2
:100248002629BF074708B600B701B801B901360823
:10025800C207370803110318013E03193429C307DD
:10026800380803110318013E03193B29C40739084C
:1002780003110318013E03194229C5070830B600C7
:100288000310BC0DBD0DBE0DBF0DB60B44292F08C4
:10029800A00032080A128A11AF270A128A1183169F
:1002A80003132108C7002008C6004608B6004708FF
:1002B800B700B801B9013608BC073708031103189D
:1002C800013E03196829BD07380803110318013EC8
:1002D80003196F29BE07390803110318013E0319D2
:1002E8007629BF072E08A00033080A128A11AF2703
:1002F8000A128A11831603132108C7002008C600B2
:100308004608B6004708B700B801B9013608BC0767
:10031800370803110318013E03199329BD0738084C
:1003280003110318013E03199A29BE07390803115E
:100338000318013E0319A129BF070830B6000310AE
:10034800BC0DBD0DBE0DBF0DB60BA3292E08A00018
:1003580032080A128A11AF270A128A118316031368
:100368002108C7002008C6004608B6004708B7009D
:10037800B801B9013608BC07370803110318013E54
:100388000319C729BD07380803110318013E0319CB
:10039800CE29BE07390803110318013E0319D529D0
:1003A800BF072F08A00034080A128A11AF270A12C3
:1003B8008A11831603132108C7002008C6004608BF
:1003C800B6004708B700B801B9013608C2073708B0
:1003D80003110318013E0319F229C3073808031152
:1003E8000318013E0319F929C40739080311031832
:1003F800013E0319002AC5073008A00033080A1275
:100408008A11AF270A128A11831603132108C7001D
:100418002008C6004608B6004708B700B801B90169
:100428003608C207370803110318013E03191D2AAD
:10043800C307380803110318013E0319242AC40707
:10044800390803110318013E03192B2AC507300880
:10045800A00034080A128A11AF270A128A118316DB
:1004680003132108C7002008C6004608B60047083D
:10047800B700B801B90108300310B60DB70DB80DB3
:10048800B90DFF3E031D402A3608C207370803117D
:100498000318013E0319512AC3073808031103182A
:1004A800013E0319582AC407390803110318013EED
:1004B80003195F2AC5073C08B6003D08B7003E0887
:1004C800B8003F08B90018300310B90CB80CB70CC5
:1004D800B60CFF3E031D682A3608C2073708031109
:1004E8000318013E0319792AC307380803110318B2
:1004F800013E0319802AC407390803110318013E75
:100508000319872AC5070830B6000310BC0DBD0DB6
:10051800BE0DBF0DB60B892A41084007B600B701CA
:10052800B70D3608823EC60037080318013EFF3E65
:10053800C700BB2A0130B6000310C20DC30DC40D9D
:10054800C50DB60BA02ABF1FAA2AAB2AAC2A421493
:100558000130B6000310BC0DBD0DBE0DBF0DB60BAE
:10056800AE2AFF30C6070318C70AFF30C707C41FE3
:10057800BE2ABF2A9E2AC001BF1FC32AC42AE02A56
:10058800FF303C05B600FF303D05B700FF303E05A3
:10059800B8007F303F05B9003908380437043604FD
:1005A8000319D72AD82ADB2AC001C00AE02A421C2C
:1005B800DE2ADF2AE02AD82A40080319E42AE52A95
:1005C800162B0130C207003003180130C307003072
:1005D80003180130C407003003180130C507451C53
:1005E800F62AF72A162B4208B6004308B700440833
:1005F800B8004508B9000130BA00390DB90CB80C7B
:10060800B70CB60CBA0B012B3908C5003808C40062
:100618003708C3003608C2000130C6070318C70AE6
:100628000030C7074708803AFF0080307F02031D6B
:100638001F2BFF304602031C222B232B2E2B7F302F
:1006480083160313C5008030C4000030C300003097
:10065800C2005F2B831603134708803AFF008030DF
:100668007F02031D392B0130460203183C2B3D2B1A
:10067800492B003083160313C5000030C400003036
:10068800C3000030C200BB015F2B8316031346086A
:10069800C100FF30C205FF30C3057F30C4050030FC
:1006A800C505411C582B592B5A2BC4174108B600B5
:1006B8000310360CC5003B08B6003608C5044508CB
:1006C800B1004408B0004308AF004208AE0008007B
:1006D800831203133D088039C7003D08C200420752
:1006E800CD00BC1F782B792B7A2B4D144D0803199C
:1006F8007E2B7F2B8E2B4D0A031D832B842B8C2B5B
:100708000030BD000030BC000030BB000030BA0033
:10071800BC17962B0030BD000030BC000030BB0079
:100728000030BA0041088039C2004208C7064108B3
:10073800C2004207CC00C01FA22BA32BA42B4C1431
:100748004C080319A82BA92BB82B4C0A031DAD2B59
:10075800AE2BB62B0030C1000030C0000030BF0007
:100768000030BE00C017C02B0030C1000030C000F0
:100778000030BF000030BE004C080319C42BC52B45
:10078800CA2B4D08031DC92BCA2BD32B0030BD0023
:100798000030BC000030BB000030BA00B02E3A0870
:1007A800F00040080A128A11D8270A128A11710823
:1007B80083120313D3007008D2005208C200C30189
:1007C800C401C5014508CB004408CA004308C90054
:1007D8004208C8005308C200C301C401C501450846
:1007E800D1004408D0004308CF004208CE003B089F
:1007F800F0003F080A128A11D8270A128A117108D4
:1008080083120313D3007008D2005208C200C30138
:10081800C401C5014208C807430803110318013E73
:100828000319172CC907440803110318013E0319BB
:100838001E2CCA07450803110318013E0319252C6D
:10084800CB075308C200C301C401C5014208CE0743
:10085800430803110318013E0319332CCF0744083A
:1008680003110318013E03193A2CD0074508031158
:100878000318013E0319412CD1073C08F0003E083B
:100888000A128A11D8270A128A11710883120313CF
:10089800D3007008D2005208C200C301C401C501C8
:1008A8004208C807430803110318013E03195D2CC9
:1008B800C907440803110318013E0319642CCA0729
:1008C800450803110318013E03196B2CCB07530885
:1008D800C200C301C401C5014208CE074308031181
:1008E8000318013E0319792CCF0744080311031894
:1008F800013E0319802CD007450803110318013E57
:100908000319872CD1070830C2000310C80DC90D80
:10091800CA0DCB0DC20B892C3B08F0003E080A1209
:100928008A11D8270A128A11710883120313D30077
:100938007008D2005208C2005308C300C401C501A0
:100948004208C807430803110318013E0319AD2CD8
:10095800C907440803110318013E0319B42CCA0738
:10096800450803110318013E0319BB2CCB073A08AD
:10097800F0003F080A128A11D8270A128A11710852
:1009880083120313D3007008D2005208C200530820
:10099800C300C401C5014208C8074308031103186E
:1009A800013E0319D82CC907440803110318013E56
:1009B8000319DF2CCA07450803110318013E031960
:1009C800E62CCB070830C2000310C80DC90DCA0DAC
:1009D800CB0DC20BE82C3A08F0003E080A128A1127
:1009E800D8270A128A11710883120313D3007008DA
:1009F800D2005208C2005308C300C401C50142080E
:100A0800C807430803110318013E03190C2DC90731
:100A1800440803110318013E0319132DCA0745089A
:100A280003110318013E03191A2DCB073B08F000E8
:100A380040080A128A11D8270A128A1171088312EB
:100A48000313D3007008D2005208C2005308C30031
:100A5800C401C5014208CE07430803110318013E2B
:100A68000319372DCF07440803110318013E031952
:100A78003E2DD007450803110318013E0319452DE3
:100A8800D1073C08F0003F080A128A11D8270A1239
:100A98008A11710883120313D3007008D200520818
:100AA800C2005308C300C401C5014208CE07430869
:100AB80003110318013E0319622DCF0744080311DF
:100AC8000318013E0319692DD007450803110318BF
:100AD800013E0319702DD1073C08F00040080A12A6
:100AE8008A11D8270A128A11710883120313D300B6
:100AF8007008D2005208C2005308C300C401C501DF
:100B080008300310C20DC30DC40DC50DFF3E031DF3
:100B1800852D4208CE07430803110318013E031927
:100B2800962DCF07440803110318013E03199D2D84
:100B3800D007450803110318013E0319A42DD10756
:100B48004808C2004908C3004A08C4004B08C50049
:100B580018300310C50CC40CC30CC20CFF3E031D97
:100B6800AD2D4208CE07430803110318013E0319AF
:100B7800BE2DCF07440803110318013E0319C52DE4
:100B8800D007450803110318013E0319CC2DD107DE
:100B98000830C2000310C80DC90DCA0DCB0DC20B19
:100BA800CE2D4D084C07C200C301C30D4208823E3A
:100BB800D20043080318013EFF3ED300002E013047
:100BC800C2000310CE0DCF0DD00DD10DC20BE52DF7
:100BD800CB1FEF2DF02DF12D4E140130C200031064
:100BE800C80DC90DCA0DCB0DC20BF32DFF30D207AE
:100BF8000318D30AFF30D307D01F032E042EE32D8A
:100C0800CC01CB1F082E092E252EFF304805C20027
:100C1800FF304905C300FF304A05C4007F304B054B
:100C2800C500450844044304420403191C2E1D2E24
:100C3800202ECC01CC0A252E4E1C232E242E252E08
:100C48001D2E4C080319292E2A2E5B2E0130CE07A3
:100C5800003003180130CF07003003180130D007E7
:100C6800003003180130D107511C3B2E3C2E5B2E5F
:100C78004E08C2004F08C3005008C4005108C50000
:100C88000130C600450DC50CC40CC30CC20CC60B04
:100C9800462E4508D1004408D0004308CF0042083A
:100CA800CE000130D2070318D30A0030D307530807
:100CB800803AFF0080307F02031D642EFF3052020D
:100CC800031C672E682E732E7F3083120313D10006
:100CD8008030D0000030CF000030CE00A42E831228
:100CE80003135308803AFF0080307F02031D7E2ED5
:100CF800013052020318812E822E8E2E003083126C
:100D08000313D1000030D0000030CF000030CE00F7
:100D1800C701A42E831203135208CD00FF30CE055D
:100D2800FF30CF057F30D0050030D1054D1C9D2EFA
:100D38009E2E9F2ED0174D08C2000310420CD100E2
:100D48004708C2004208D1045108BD005008BC0041
:100D58004F08BB004E08BA0008000B1DB42EB52E74
:100D6800C32E6A08F1006908F0000A128A153820B3
:100D78000A128A110B1162308312031381000C1FAF
:100D8800C62EC72EA62F1F0CDC005C0C0F39003AAC
:100D9800031DCF2ED02E2A2F3B30BD002330BC00A0
:100DA800D730BB000A30BA004330A3007F30A2001E
:100DB8000030A1000030A0001E08DC00DD01DE01CB
:100DC800DF015F08F3005E08F2005D08F1005C08CF
:100DD800F00001300A128A15F7210A128A117308E5
:100DE80083120313A7007208A6007108A5007008F3
:100DF800A4000A128A155A240A128A1183120313AC
:100E08002308C1002208C0002108BF002008BE0036
:100E18000A128A116C230A128A11831203133D08DD
:100E2800E6003C08E5003B08E4003A08E3006608F1
:100E3800D7006508D6006408D5006308D4000130DF
:100E48000A168A1188270A128A11A32F1F0CDC00A0
:100E58005C0C0F39043A031D322F332F8D2F3B3092
:100E6800BD002330BC00D730BB000A30BA00433085
:100E7800A3007F30A2000030A1000030A0001E08AF
:100E8800DC00DD01DE01DF015F08F3005E08F2002F
:100E98005D08F1005C08F00001300A128A15F7219C
:100EA8000A128A11730883120313A7007208A60096
:100EB8007108A5007008A4000A128A155A240A129B
:100EC8008A11831203132308C1002208C0002108D5
:100ED800BF002008BE000A128A116C230A128A1168
:100EE800831203133D08E6003C08E5003B08E400D4
:100EF8003A08E3006608D7006508D6006408D500FC
:100F08006308D40002300A168A1188270A128A1147
:100F1800A32F1F0CDC005C0C0F39023A031D952F20
:100F2800962FA32F1E08DC00DD015C08831603172B
:100F38009400831203135D08831603179500831228
:100F480003130C136208FF0061088A00600E830017
:100F5800FE0E7E0E090083160313A800A401A50146
:100F68002008A200A3012208A6002308A700281C25
:100F7800BE2FBF2FC52F2608A4070318A50A2708C8
:100F8800A50701300310A60DA70DFF3E031DC62FB0
:100F98000310A80C2808031DD22FD32FBB2F250818
:100FA800A1002408A0000800F800F401F501700869
:100FB800F200F3017208F6007308F700781CE52FB9
:100FC800E62FEC2F7608F4070318F50A7708F507DB
:100FD80001300310F60DF70DFF3E031DED2F031032
:100FE800F80C7808031DF92FFA2FE22F7508F10085
:060FF8007408F00008007F
:10107000013083120313EB070318EC0A0030EC076E
:101080007108803AF2006C08803A7202031D4A2807
:101090006B087002031C4D284E285228831203133C
:1010A00087155728831203138711EB01EC01080001
:1010B000031083160313640D650DEB006B08031D0D
:1010C000622863286C280030E5000030E40000301E
:1010D000E3000030E200CF286208E6006308E70082
:1010E0006408E8006508E9001F300310E90CE80C0B
:1010F000E70CE60CFF3E031D75286608EA00E417BE
:10110000FF30E205FF30E305FF30E4050030E50580
:101110009630EB02EB1F8D288E28A8286B08803AAA
:10112000973E0318942895289628632801300310C9
:10113000E50CE40CE30CE20CFF3E031D97280130A4
:10114000E6006608EB07031DA628A7289628BF28F7
:1011500020306B02031CAD28AE28BA28632801306A
:10116000E6000310E20DE30DE40DE50DE60BB128FA
:101170000130EB026B08031DBE28BF28AF286A08A8
:101180000319C328C428CF28E209E309E409E509C3
:10119000E20A0319E30A0319E40A0319E50A08003D
:1011A00083160317081408150816890183160313FC
:1011B0008601870188018901831203138501860155
:1011C000870188018901831603130F088F3960385E
:1011D0008F000F14811281110115811401146230E6
:1011E0008312031381000C130B17831603130C17C0
:1011F0008B17831203139F14C3309F0583160313A9
:101200001F129F12831203131F083F3980389F005B
:10121000831603139F13831203131F14C7308316FF
:1012200003179A0013299A0B122916293B308316AB
:101230000313EF008330EE001230ED006F30EC004E
:1012400001300A168A119F260A128A153B3083162E
:101250000313EF008330EE001230ED006F30EC002E
:1012600002300A168A119F260A128A153B3083160D
:101270000313EF002330EE00D730ED000A30EC000E
:1012800001300A128A1557210A128A153B3083163B
:101290000313EF002330EE00D730ED000A30EC00EE
:1012A00002300A128A1557210A128A15080083167D
:1012B00003179800831603136F08CF006E08CE0043
:1012C0006D08CD006C08CC003630CB008630CA00EB
:1012D0003730C900BD30C8000A128A152D260A12FF
:1012E0008A15831603134B08E5004A08E4004908F1
:1012F000E3004808E2000A128A1558200A128A15EB
:101300008316031362088316031799001803031D3D
:101310008A298B29BE291908960002300310960CE1
:10132000FF3E031D8E2916088312031395008316B2
:101330000317190801399600960E83120313170834
:10134000831603171606EF39160683120313970048
:1013500083160317190896000310160C013997001D
:10136000970E970D8312031317088316031717069A
:10137000DF391706831203139700F6290230180687
:10138000031DC329C429F629190896000230031049
:10139000960CFF3E031DC7291608831203139B00FA
:1013A00083160317190801399600960E831203134A
:1013B0001D08831603171606EF391606831203134A
:1013C0009D0083160317190896000310160C0139A7
:1013D0009700970E970D831203131D0883160317AA
:1013E0001706DF391706831203139D000800F80063
:1013F00078080319FC29FD29112AF31F002A012A64
:10140000112A7009FA007109FB007209FC007309C6
:10141000FD00FA0A0319FB0A0319FC0A0319FD0A65
:10142000192A7308FD007208FC007108FB0070089F
:10143000FA007308720471047004031D202A212A23
:101440002A2A0030F3000030F2000030F1000030B2
:10145000F000AE2A9630F9003A2A0130F400740800
:10146000F90701300310FD0CFC0CFB0CFA0CFF3EDD
:10147000031D322AFE307D05031D3F2A402A2D2AF6
:101480005C2A0130F4007408F9070130FA070030D3
:1014900003180130FB07003003180130FC0700304F
:1014A00003180130FD0701300310FD0CFC0CFB0C90
:1014B000FA0CFF3E031D542AFF307D05031D612AEF
:1014C000622A412A6E2A0130F9020130F400031029
:1014D000FA0DFB0DFC0DFD0DF40B672AFC1B712AA8
:1014E000722A782A023079020318772A782A632A26
:1014F00079187B2A7C2A842AFF30FA05FF30FB0505
:101500007F30FC05FF30FD050310F90C7908F4006D
:10151000F501F601F70118300310F40DF50DF60D85
:10152000F70DFF3E031D8C2A7408FA047508FB04AE
:101530007608FC047708FD0478080319A02AA12A7C
:10154000A62AF31FA42AA52AA62AFD177D08F300C0
:101550007C08F2007B08F1007A08F000080083168E
:101560000313A80028080319B62AB72ACB2AA31FF9
:10157000BA2ABB2ACB2A2009AA002109AB002209DA
:10158000AC002309AD00AA0A0319AB0A0319AC0A7F
:101590000319AD0AD32A2308AD002208AC002108A4
:1015A000AB002008AA002308220421042004031D04
:1015B000DA2ADB2AE42A0030A3000030A20000303F
:1015C000A1000030A000682B9630A900F42A013059
:1015D000A4002408A90701300310AD0CAC0CAB0C1F
:1015E000AA0CFF3E031DEC2AFE302D05031DF92A2F
:1015F000FA2AE72A162B0130A4002408A907013093
:10160000AA07003003180130AB070030031801307F
:10161000AC07003003180130AD0701300310AD0CEA
:10162000AC0CAB0CAA0CFF3E031D0E2BFF302D059E
:10163000031D1B2B1C2BFB2A282B0130A902013078
:10164000A4000310AA0DAB0DAC0DAD0DA40B212B06
:10165000AC1B2B2B2C2B322B023029020318312BE5
:10166000322B1D2B2918352B362B3E2BFF30AA058C
:10167000FF30AB057F30AC05FF30AD050310A90C82
:101680002908A400A501A601A70118300310A40D84
:10169000A50DA60DA70DFF3E031D462B2408AA0489
:1016A0002508AB042608AC042708AD042808031954
:1016B0005A2B5B2B602BA31F5E2B5F2B602BAD1770
:1016C0002D08A3002C08A2002B08A1002A08A000C6
:1016D00008000A128A15D0200A128A1583120313F1
:1016E0009F14423083160313CB00C830CA00003069
:1016F000C9000030C8003E30B100C830B000C8306A
:10170000AF00C930AE008316031714088316031305
:10171000A00083160317150883160313A1000030D9
:10172000A11BFF30A200A30001300A128A15AF22CC
:101730000A128A15831603132308B5002208B40081
:101740002108B3002008B2000A128A1127200A12C9
:101750008A15831603133108CF003008CE002F08F6
:10176000CD002E08CC000A128A152D260A128A15E1
:10177000831603134B088316031793008316031372
:101780004A08831603179200831603134908831629
:10179000031791008316031348088316031790005C
:1017A000130883160313B500831603171208831654
:1017B0000313B40083160317110883160313B30031
:1017C00083160317100883160313B2004130B100CB
:1017D000A030B0000030AF000030AE000A128A1115
:1017E00027200A128A15831603133108E5003008F2
:1017F000E4002F08E3002E08E2000A128A155820A0
:101800000A128A1583160313630883120313EA006E
:1018100083160313620883120313E9006908860024
:101820009F18132C142C712B1F0C831603179B006D
:101830001B0C0F39003A031D1E2C1F2C262C831263
:1018400003131F08C33910389F004B2C8312031356
:101850001F0C831603179B001B0C0F39043A031D42
:10186000322C332C3A2C831203131F08C339083847
:101870009F004B2C831203131F0C831603179B002E
:101880001B0C0F39023A031D462C472C4B2CC3303E
:10189000831203139F05C730831603179B00502C38
:1018A0009B0B4F2C532C831203139F14712B0A1282
:1018B0008A1110288312031327088039B1002708E2
:1018C000A8002807B800A61F662C672C682C3814BF
:1018D000380803196C2C6D2C7D2C380A031D712CD3
:1018E000722C7A2C0030A7000030A6000030A50032
:1018F0000030A400A617A701852C0030A7000030F7
:10190000A6000030A5000030A40023088039A800FC
:101910002808B1062308A8002807B900A21F912CA7
:10192000922C932C391439080319972C982CA82C35
:10193000390A031D9C2C9D2CA52C0030A3000030DF
:10194000A2000030A1000030A000A217A301B02C1B
:101950000030A3000030A2000030A1000030A00041
:101960002308220421042004031DB72CB82CD12CF9
:101970000030A7000030A6000030A5000030A40011
:101980008030A6047F30A7043108A8002808A704E7
:101990002708A3002608A2002508A1002408A0000B
:1019A0002C2E3808031DD52CD62CDF2C0030A3009C
:1019B0000030A2000030A1000030A0002C2E38081A
:1019C000A800A9012908AB0039082802AA00031CB5
:1019D000AB032A087F3EB2002B080318013E003EED
:1019E000B3002708B0002608AF002508AE00240881
:1019F000AD000030A7000030A6000030A500003088
:101A0000A4000030B7000030B6000030B500003050
:101A1000B400B901552D390803190F2D102D302DA3
:101A20000130A8000310AD0DAE0DAF0DB00DA80B29
:101A3000122D0130A8000310A40DA50DA60DA70DB1
:101A4000A80B1B2DB71F252D262D272D2414013063
:101A5000A8000310B40DB50DB60DB70DA80B292DB8
:101A600023083002031D3E2D22082F02031D3E2DA8
:101A700021082E02031D3E2D20082D02031C412D9E
:101A8000422D512D37172008AD022108031C210FCC
:101A9000AE022208031C220FAF022308031C230FEF
:101AA000B0020130A8002808B9071A303902031C17
:101AB0005A2D5B2D0B2D30082F042E042D040319F5
:101AC000622D632D822D3414822D0130A800031065
:101AD000A40DA50DA60DA70DA80B672DB71F712D81
:101AE000722D732D24140130A8000310B40DB50D10
:101AF000B60DB70DA80B752DFF30B2070318B30A4A
:101B0000FF30B307A61F852D862D652DB901B71FA0
:101B10008A2D8B2DA72DFF303405A800FF30350509
:101B2000A900FF303605AA007F303705AB002B082F
:101B30002A042904280403199E2D9F2DA22DB901E2
:101B4000B90AA72D241CA52DA62DA72D9F2D390838
:101B50000319AB2DAC2DDD2D0130A4070030031887
:101B60000130A507003003180130A6070030031824
:101B70000130A707271CBD2DBE2DDD2D2408A80090
:101B80002508A9002608AA002708AB000130AC00F0
:101B90002B0DAB0CAA0CA90CA80CAC0BC82D2B0858
:101BA000A7002A08A6002908A5002808A4000130DB
:101BB000B2070318B30A0030B3073308803AFF00B6
:101BC00080307F02031DE62DFF303202031CE92D19
:101BD000EA2DF82DFF3083120313B2000030B3005A
:101BE0000030A7000030A6000030A5000030A4009F
:101BF000831203133308803AFF0080307F02031DF5
:101C0000032E013032020318062E072E142E8312E3
:101C10000313B201B3010030A7000030A60000306A
:101C2000A5000030A400B101831203133208B800EC
:101C3000381C1B2E1C2E1E2EA617222E7F30A8000D
:101C40002808A6053808A8000310280CA7003108AA
:101C5000A8002808A704C82C0800831603134F08FF
:101C60008039D9004F08D0005007E000CE1F392E30
:101C70003A2E3B2E6014600803193F2E402E502E42
:101C8000600A031D442E452E4D2E0030CF0000303B
:101C9000CE000030CD000030CC00CE17CF01582E42
:101CA0000030CF000030CE000030CD000030CC003E
:101CB0004B088039D0005008D9064B08D000500797
:101CC000E100CA1F642E652E662E61146108031997
:101CD0006A2E6B2E7B2E610A031D6F2E702E782EBE
:101CE0000030CB000030CA000030C9000030C8000E
:101CF000CA17CB01832E0030CB000030CA00003061
:101D0000C9000030C8004B084A0449044804031DB8
:101D10008A2E8B2EA42E0030CF000030CE00003053
:101D2000CD000030CC008030CE047F30CF04590885
:101D3000D0005008CF044F08CB004E08CA004D0811
:101D4000C9004C08C800FF2F6008031DA82EA92E4B
:101D5000B22E0030CB000030CA000030C900003085
:101D6000C800FF2F6008D000D1015108D3006108DE
:101D70005002D200031CD30352087F3EDA005308FE
:101D80000318013E003EDB004F08D8004E08D70084
:101D90004D08D6004C08D5000030CF000030CE00F2
:101DA0000030CD000030CC000030DF000030DE001D
:101DB0000030DD000030DC00E101282F610803194C
:101DC000E22EE32E032F0130D0000310D50DD60DE7
:101DD000D70DD80DD00BE52E0130D0000310CC0D5F
:101DE000CD0DCE0DCF0DD00BEE2EDF1FF82EF92E20
:101DF000FA2E4C140130D0000310DC0DDD0DDE0D89
:101E0000DF0DD00BFC2E4B085802031D112F4A0882
:101E10005702031D112F49085602031D112F4808B0
:101E20005502031C142F152F242F5F174808D502C5
:101E30004908031C490FD6024A08031C4A0FD7025F
:101E40004B08031C4B0FD8020130D0005008E107AB
:101E50001A306102031C2D2F2E2FDE2E5808570436
:101E6000560455040319352F362F552F5C14552F62
:101E70000130D0000310CC0DCD0DCE0DCF0DD00B09
:101E80003A2FDF1F442F452F462F4C140130D0002E
:101E90000310DC0DDD0DDE0DDF0DD00B482FFF3004
:101EA000DA070318DB0AFF30DB07CE1F582F592F44
:101EB000382FE101DF1F5D2F5E2F7A2FFF305C0589
:101EC000D000FF305D05D100FF305E05D2007F30CD
:101ED0005F05D30053085204510450040319712FB5
:101EE000722F752FE101E10A7A2F4C1C782F792F80
:101EF0007A2F722F610803197E2F7F2FB02F0130A8
:101F0000CC07003003180130CD0700300318013032
:101F1000CE07003003180130CF074F1C902F912FB0
:101F2000B02F4C08D0004D08D1004E08D2004F0809
:101F3000D3000130D400530DD30CD20CD10CD00CF3
:101F4000D40B9B2F5308CF005208CE005108CD0070
:101F50005008CC000130DA070318DB0A0030DB0739
:101F60005B08803AFF0080307F02031DB92FFF30ED
:101F70005A02031CBC2FBD2FCB2FFF308316031337
:101F8000DA000030DB000030CF000030CE0000303F
:101F9000CD000030CC00831603135B08803AFF00AD
:101FA00080307F02031DD62F01305A020318D92F2B
:101FB000DA2FE72F83160313DA01DB010030CF009D
:101FC0000030CE000030CD000030CC00D9018316A7
:101FD00003135A08E000601CEE2FEF2FF12FCE17ED
:101FE000F52F7F30D0005008CE056008D0000310D8
:101FF000500CCF005908D0005008CF049B2E080089
:102D3E00831603179600831603136F08CF006E08D1
:102D4E00CE006D08CD006C08CC003730CB0086303D
:102D5E00CA003730C900BD30C8000A128A152D26A8
:102D6E000A168A11831603134B08E5004A08E4007D
:102D7E004908E3004808E2000A128A1558200A168C
:102D8E008A11831603136208920083160317160323
:102D9E00031DD22ED32EE32E8316031387143F303A
:102DAE008312031397051708F0390C3897000F306C
:102DBE00950017129712F62E02301606031DE82EF6
:102DCE00E92EF62E831603130715831203131D081F
:102DDE00F0390C389D000F309B001D129D1283128E
:102DEE0003138C100330920412158C1CFF2E002F2F
:102DFE00FC2E8C10831603171603031D072F082FA6
:102E0E000C2F8316031387100F2F8316031307112E
:102E1E0008000310831203133C0D3D0DC30043083D
:102E2E00031D1A2F1B2F242F0030BD000030BC00B5
:102E3E000030BB000030BA00872F3A08BE003B08B6
:102E4E00BF003C08C0003D08C1001F300310C10C7C
:102E5E00C00CBF0CBE0CFF3E031D2D2F3E08C20042
:102E6E00BC17FF30BA05FF30BB05FF30BC05003084
:102E7E00BD059630C302C31F452F462F602F430852
:102E8E00803A973E03184C2F4D2F4E2F1B2F01309B
:102E9E000310BD0CBC0CBB0CBA0CFF3E031D4F2F18
:102EAE000130BE003E08C307031D5E2F5F2F4E2F5D
:102EBE00772F20304302031C652F662F722F1B2F96
:102ECE000130BE000310BA0DBB0DBC0DBD0DBE0B07
:102EDE00692F0130C3024308031D762F772F672F0A
:102EEE00420803197B2F7C2F872FBA09BB09BC0917
:102EFE00BD09BA0A0319BB0A0319BC0A0319BD0A94
:102F0E00080083120313DA005708A7005608A6001C
:102F1E005508A5005408A4003630A3008630A20040
:102F2E003730A100BD30A0000A128A155A240A16A5
:102F3E008A11831203132308BD002208BC00210846
:102F4E00BB002008BA000A168A1110270A168A1129
:102F5E00831203133A08DB005A03031DB72FB82F51
:102F6E00D92F5B08D80002300310D80CFF3E031D8A
:102F7E00BB2F580895005B080139D800D80E1708EA
:102F8E005806EF39580697005B08D8000310580C06
:102F9E000139D900D90ED90D17085906DF3959064E
:102FAE009700FF2F02305A06031DDE2FDF2FFF2F53
:102FBE005B08D80002300310D80CFF3E031DE22F31
:102FCE0058089B005B080139D800D80E1D0858061A
:102FDE00EF3958069D005B08D8000310580C0139D4
:102FEE00D900D90ED90D1D085906DF3959069D0095
:022FFE000800C9
:08400000FF3FFF3FFF3FFF3FC0
:04400E00D420FF3F7C
:00000001FF
