:060000000A128A1110280B
:10000800FE00030E83120313EC000A08ED007F08BC
:10001800EE000A128A11B12E0A128A1113288316C9
:100028000313E801E901EA01EB0183160317A401B0
:10003800A501A601A701A801A901AA01AB01830195
:100048000A128A15592B8316031335088039BF0005
:100058003508BA003A07C500B41F332834283528B4
:1000680045144508031939283A284928450A031D23
:100078003E283F2847280030B5000030B400003043
:10008800B3000030B200B41751280030B50000307A
:10009800B4000030B3000030B20039088039BA002B
:1000A8003A08BF063908BA003A07C400B81F5D28E5
:1000B8005E285F28441444080319632864287328B9
:1000C800440A031D6828692871280030B9000030E7
:1000D800B8000030B7000030B600B8177B280030F1
:1000E800B9000030B8000030B7000030B60044084E
:1000F80003197F28802885284508031D842885281A
:100108008E280030B5000030B4000030B300003055
:10011800B2006B2B3208A40038080A168A1144264C
:100128000A128A11831603132508CB002408CA0073
:100138004A08BA00BB01BC01BD013D08C3003C0828
:10014800C2003B08C1003A08C0004B08BA00BB0116
:10015800BC01BD013D08C9003C08C8003B08C700F8
:100168003A08C6003308A40037080A168A1144263C
:100178000A128A11831603132508CB002408CA0023
:100188004A08BA00BB01BC01BD013A08C0073B08D8
:1001980003110318013E0319D228C1073C080311B3
:1001A8000318013E0319D928C2073D080311031893
:1001B800013E0319E028C3074B08BA00BB01BC0184
:1001C800BD013A08C6073B0803110318013E03198D
:1001D800EE28C7073C0803110318013E0319F52848
:1001E800C8073D0803110318013E0319FC28C90775
:1001F8003408A40036080A168A1144260A128A11FD
:10020800831603132508CB002408CA004A08BA003D
:10021800BB01BC01BD013A08C0073B080311031824
:10022800013E03191829C1073C0803110318013EB0
:1002380003191F29C2073D0803110318013E0319BA
:100248002629C3074B08BA00BB01BC01BD013A0807
:10025800C6073B0803110318013E03193429C707D1
:100268003C0803110318013E03193B29C8073D0840
:1002780003110318013E03194229C9070830BA00BF
:100288000310C00DC10DC20DC30DBA0B44293308AC
:10029800A40036080A168A1144260A128A118316FF
:1002A80003132508CB002408CA004A08BA004B08E3
:1002B800BB00BC01BD013A08C0073B080311031885
:1002C800013E03196829C1073C0803110318013EC0
:1002D80003196F29C2073D0803110318013E0319CA
:1002E8007629C3073208A40037080A168A1144265B
:1002F8000A128A11831603132508CB002408CA00A2
:100308004A08BA004B08BB00BC01BD013A08C00747
:100318003B0803110318013E03199329C1073C0840
:1003280003110318013E03199A29C2073D08031156
:100338000318013E0319A129C3070830BA000310A6
:10034800C00DC10DC20DC30DBA0BA3293208A400FC
:1003580036080A168A1144260A128A1183160313CC
:100368002508CB002408CA004A08BA004B08BB007D
:10037800BC01BD013A08C0073B0803110318013E40
:100388000319C729C1073C0803110318013E0319C3
:10039800CE29C2073D0803110318013E0319D529C8
:1003A800C3073308A40038080A168A1144260A121B
:1003B8008A11831603132508CB002408CA004A08AB
:1003C800BA004B08BB00BC01BD013A08C6073B0890
:1003D80003110318013E0319F229C7073C0803114A
:1003E8000318013E0319F929C8073D08031103182A
:1003F800013E0319002AC9073408A40037080A1661
:100408008A1144260A128A11831603132508CB0081
:100418002408CA004A08BA004B08BB00BC01BD0149
:100428003A08C6073B0803110318013E03191D2AA1
:10043800C7073C0803110318013E0319242AC807FB
:100448003D0803110318013E03192B2AC907340874
:10045800A40038080A168A1144260A128A1183163B
:1004680003132508CB002408CA004A08BA004B0821
:10047800BB00BC01BD0108300310BA0DBB0DBC0D9B
:10048800BD0DFF3E031D402A3A08C6073B0803116D
:100498000318013E0319512AC7073C080311031822
:1004A800013E0319582AC8073D0803110318013EE5
:1004B80003195F2AC9074008BA004108BB0042086F
:1004C800BC004308BD0018300310BD0CBC0CBB0CAD
:1004D800BA0CFF3E031D682A3A08C6073B080311F9
:1004E8000318013E0319792AC7073C0803110318AA
:1004F800013E0319802AC8073D0803110318013E6D
:100508000319872AC9070830BA000310C00DC10DA6
:10051800C20DC30DBA0B892A45084407BA00BB01AE
:10052800BB0D3A08823ECA003B080318013EFF3E55
:10053800CB00BB2A0130BA000310C60DC70DC80D89
:10054800C90DBA0BA02AC31FAA2AAB2AAC2A461483
:100558000130BA000310C00DC10DC20DC30DBA0B96
:10056800AE2AFF30CA070318CB0AFF30CB07C81FD3
:10057800BE2ABF2A9E2AC401C31FC32AC42AE02A4E
:10058800FF304005BA00FF304105BB00FF3042058F
:10059800BC007F304305BD003D083C043B043A04E1
:1005A8000319D72AD82ADB2AC401C40AE02A461C20
:1005B800DE2ADF2AE02AD82A44080319E42AE52A91
:1005C800162B0130C607003003180130C70700306A
:1005D80003180130C807003003180130C907491C47
:1005E800F62AF72A162B4608BA004708BB0048081F
:1005F800BC004908BD000130BE003D0DBD0CBC0C5F
:10060800BB0CBA0CBE0B012B3D08C9003C08C80046
:100618003B08C7003A08C6000130CA070318CB0ACE
:100628000030CB074B08803AFF0080307F02031D63
:100638001F2BFF304A02031C222B232B2E2B7F302B
:1006480083160313C9008030C8000030C70000308B
:10065800C6005F2B831603134B08803AFF008030D7
:100668007F02031D392B01304A0203183C2B3D2B16
:10067800492B003083160313C9000030C80000302E
:10068800C7000030C600BF015F2B831603134A085A
:10069800C500FF30C605FF30C7057F30C8050030EC
:1006A800C905451C582B592B5A2BC8174508BA00A1
:1006B80003103A0CC9003F08BA003A08C9044908AF
:1006C800B5004808B4004708B3004608B20008005F
:1006D800831203133D088039C7003D08C200420752
:1006E800CD00BC1F782B792B7A2B4D144D0803199C
:1006F8007E2B7F2B8E2B4D0A031D832B842B8C2B5B
:100708000030BD000030BC000030BB000030BA0033
:10071800BC17962B0030BD000030BC000030BB0079
:100728000030BA0041088039C2004208C7064108B3
:10073800C2004207CC00C01FA22BA32BA42B4C1431
:100748004C080319A82BA92BB82B4C0A031DAD2B59
:10075800AE2BB62B0030C1000030C0000030BF0007
:100768000030BE00C017C02B0030C1000030C000F0
:100778000030BF000030BE004C080319C42BC52B45
:10078800CA2B4D08031DC92BCA2BD32B0030BD0023
:100798000030BC000030BB000030BA00B02E3A0870
:1007A800F00040080A168A111D260A128A117108DB
:1007B80083120313D3007008D2005208C200C30189
:1007C800C401C5014508CB004408CA004308C90054
:1007D8004208C8005308C200C301C401C501450846
:1007E800D1004408D0004308CF004208CE003B089F
:1007F800F0003F080A168A111D260A128A1171088C
:1008080083120313D3007008D2005208C200C30138
:10081800C401C5014208C807430803110318013E73
:100828000319172CC907440803110318013E0319BB
:100838001E2CCA07450803110318013E0319252C6D
:10084800CB075308C200C301C401C5014208CE0743
:10085800430803110318013E0319332CCF0744083A
:1008680003110318013E03193A2CD0074508031158
:100878000318013E0319412CD1073C08F0003E083B
:100888000A168A111D260A128A1171088312031387
:10089800D3007008D2005208C200C301C401C501C8
:1008A8004208C807430803110318013E03195D2CC9
:1008B800C907440803110318013E0319642CCA0729
:1008C800450803110318013E03196B2CCB07530885
:1008D800C200C301C401C5014208CE074308031181
:1008E8000318013E0319792CCF0744080311031894
:1008F800013E0319802CD007450803110318013E57
:100908000319872CD1070830C2000310C80DC90D80
:10091800CA0DCB0DC20B892C3B08F0003E080A1605
:100928008A111D260A128A11710883120313D30033
:100938007008D2005208C2005308C300C401C501A0
:100948004208C807430803110318013E0319AD2CD8
:10095800C907440803110318013E0319B42CCA0738
:10096800450803110318013E0319BB2CCB073A08AD
:10097800F0003F080A168A111D260A128A1171080A
:1009880083120313D3007008D2005208C200530820
:10099800C300C401C5014208C8074308031103186E
:1009A800013E0319D82CC907440803110318013E56
:1009B8000319DF2CCA07450803110318013E031960
:1009C800E62CCB070830C2000310C80DC90DCA0DAC
:1009D800CB0DC20BE82C3A08F0003E080A168A1123
:1009E8001D260A128A11710883120313D300700896
:1009F800D2005208C2005308C300C401C50142080E
:100A0800C807430803110318013E03190C2DC90731
:100A1800440803110318013E0319132DCA0745089A
:100A280003110318013E03191A2DCB073B08F000E8
:100A380040080A168A111D260A128A1171088312A3
:100A48000313D3007008D2005208C2005308C30031
:100A5800C401C5014208CE07430803110318013E2B
:100A68000319372DCF07440803110318013E031952
:100A78003E2DD007450803110318013E0319452DE3
:100A8800D1073C08F0003F080A168A111D260A12F1
:100A98008A11710883120313D3007008D200520818
:100AA800C2005308C300C401C5014208CE07430869
:100AB80003110318013E0319622DCF0744080311DF
:100AC8000318013E0319692DD007450803110318BF
:100AD800013E0319702DD1073C08F00040080A16A2
:100AE8008A111D260A128A11710883120313D30072
:100AF8007008D2005208C2005308C300C401C501DF
:100B080008300310C20DC30DC40DC50DFF3E031DF3
:100B1800852D4208CE07430803110318013E031927
:100B2800962DCF07440803110318013E03199D2D84
:100B3800D007450803110318013E0319A42DD10756
:100B48004808C2004908C3004A08C4004B08C50049
:100B580018300310C50CC40CC30CC20CFF3E031D97
:100B6800AD2D4208CE07430803110318013E0319AF
:100B7800BE2DCF07440803110318013E0319C52DE4
:100B8800D007450803110318013E0319CC2DD107DE
:100B98000830C2000310C80DC90DCA0DCB0DC20B19
:100BA800CE2D4D084C07C200C301C30D4208823E3A
:100BB800D20043080318013EFF3ED300002E013047
:100BC800C2000310CE0DCF0DD00DD10DC20BE52DF7
:100BD800CB1FEF2DF02DF12D4E140130C200031064
:100BE800C80DC90DCA0DCB0DC20BF32DFF30D207AE
:100BF8000318D30AFF30D307D01F032E042EE32D8A
:100C0800CC01CB1F082E092E252EFF304805C20027
:100C1800FF304905C300FF304A05C4007F304B054B
:100C2800C500450844044304420403191C2E1D2E24
:100C3800202ECC01CC0A252E4E1C232E242E252E08
:100C48001D2E4C080319292E2A2E5B2E0130CE07A3
:100C5800003003180130CF07003003180130D007E7
:100C6800003003180130D107511C3B2E3C2E5B2E5F
:100C78004E08C2004F08C3005008C4005108C50000
:100C88000130C600450DC50CC40CC30CC20CC60B04
:100C9800462E4508D1004408D0004308CF0042083A
:100CA800CE000130D2070318D30A0030D307530807
:100CB800803AFF0080307F02031D642EFF3052020D
:100CC800031C672E682E732E7F3083120313D10006
:100CD8008030D0000030CF000030CE00A42E831228
:100CE80003135308803AFF0080307F02031D7E2ED5
:100CF800013052020318812E822E8E2E003083126C
:100D08000313D1000030D0000030CF000030CE00F7
:100D1800C701A42E831203135208CD00FF30CE055D
:100D2800FF30CF057F30D0050030D1054D1C9D2EFA
:100D38009E2E9F2ED0174D08C2000310420CD100E2
:100D48004708C2004208D1045108BD005008BC0041
:100D58004F08BB004E08BA0008000B1DB42EB52E74
:100D6800C52E831603136908F1006808F0000A16F7
:100D78008A11FB250A128A110B11623083120313A0
:100D880081000C1FC82EC92EE02F1F0CE800680C2C
:100D98000F39003A031DD12ED22E482F3B30BD000B
:100DA8002330BC00D730BB000A30BA004330A30060
:100DB8007F30A2000030A1000030A0001E08E8002B
:100DC800E901EA01EB016B08F3006A08F20069081F
:100DD800F1006808F00001300A128A150A210A1287
:100DE8008A11730883120313A7007208A6007108FA
:100DF800A5007008A4000A128A155A240A128A113A
:100E0800831203132308C1002208C0002108BF0071
:100E18002008BE000A128A116C230A128A11831252
:100E280003133D0883160313A300831203133C081E
:100E380083160313A200831203133B0883160313BC
:100E4800A100831203133A0883160313A000230892
:100E580083120313E100831603132208831203137A
:100E6800E00083160313210883120313DF0083169F
:100E78000313200883120313DE0001300A128A15B7
:100E88006D200A128A11DD2F1F0CE800680C0F393B
:100E9800043A031D502F512FC72F3B30BD0023307C
:100EA800BC00D730BB000A30BA004330A3007F3003
:100EB800A2000030A1000030A0001E08E800E901EF
:100EC800EA01EB016B08F3006A08F2006908F10017
:100ED8006808F00001300A128A150A210A128A11DC
:100EE800730883120313A7007208A6007108A500EF
:100EF8007008A4000A128A155A240A128A11831249
:100F080003132308C1002208C0002108BF002008DD
:100F1800BE000A128A116C230A128A118312031363
:100F28003D0883160313A300831203133C0883169A
:100F38000313A200831203133B0883160313A100B3
:100F4800831203133A0883160313A000230883129D
:100F58000313E10083160313220883120313E0002E
:100F680083160313210883120313DF008316031368
:100F7800200883120313DE0002300A128A156D203E
:100F88000A128A11DD2F1F0CE800680C0F39023A8B
:100F9800031DCF2FD02FDD2F1E08E800E9016808B8
:100FA80083160317AA00831203136908831603170D
:100FB800AB00831203130C136E08FF006D088A0040
:0A0FC8006C0E8300FE0E7E0E090081
:10100C008316031708140815081689018316031391
:10101C0086018701880189018312031385018601EA
:10102C00870188018901831603130F088F396038F3
:10103C008F000F148112811101158114011462307B
:10104C008312031381000C130B17831603130C1755
:10105C008B17831203139F14C3309F05831603133E
:10106C001F129F12831203131F083F3980389F00F1
:10107C00831603139F13831203131F14C730831695
:10108C000317A2004928A20B48284C283B30831692
:10109C0003179B0083309A00123099006F30980030
:1010AC0002300A168A11E5260A128A153B3083167D
:1010BC0003179B0023309A00D73099000A30980010
:1010CC0002300A128A157C220A128A150800831231
:1010DC000313E5006108C1006008C0005F08BF0091
:1010EC005E08BE004030BD008030BC000030BB004C
:1010FC000030BA000A128A116C230A128A15831264
:10110C0003133D08A7003C08A6003B08A5003A08BD
:10111C00A4003630A3008630A2003730A100BD30C9
:10112C00A0000A128A155A240A128A158312031374
:10113C002308D7002208D6002108D5002008D400A7
:10114C000A168A116D260A128A1583120313550882
:10115C00E7005408E6006503031DB528B628DD2812
:10116C006708E3006608E200630DE30CE20C630D14
:10117C00E30CE20C6208950066080139E200E20E0D
:10118C0017086206EF39620697006708E3006608E5
:10119C00E200630DE30CE20C62080139E400E40E9A
:1011AC00E40D17086406DF3964069700092902303C
:1011BC006506031DE228E32809296708E300660891
:1011CC00E200630DE30CE20C630DE30CE20C62082D
:1011DC009B0066080139E200E20E1D086206EF3939
:1011EC0062069D006708E3006608E200630DE30CED
:1011FC00E20C62080139E400E40EE40D1D086406FB
:10120C00DF3964069D000800F800780803190F29DF
:10121C0010292429F31F1329142924297009FA00F1
:10122C007109FB007209FC007309FD00FA0A03192D
:10123C00FB0A0319FC0A0319FD0A2C297308FD008B
:10124C007208FC007108FB007008FA007308720445
:10125C0071047004031D332934293D290030F30037
:10126C000030F2000030F1000030F000C12996305F
:10127C00F9004D290130F4007408F907013003100E
:10128C00FD0CFC0CFB0CFA0CFF3E031D4529FE303B
:10129C007D05031D5229532940296F290130F40083
:1012AC007408F9070130FA07003003180130FB0706
:1012BC00003003180130FC07003003180130FD0723
:1012CC0001300310FD0CFC0CFB0CFA0CFF3E031D53
:1012DC006729FF307D05031D74297529542981293F
:1012EC000130F9020130F4000310FA0DFB0DFC0D76
:1012FC00FD0DF40B7A29FC1B842985298B290230DE
:10130C00790203188A298B29762979188E298F2935
:10131C009729FF30FA05FF30FB057F30FC05FF30C5
:10132C00FD050310F90C7908F400F501F601F7013D
:10133C0018300310F40DF50DF60DF70DFF3E031DDF
:10134C009F297408FA047508FB047608FC047708D6
:10135C00FD0478080319B329B429B929F31FB72957
:10136C00B829B929FD177D08F3007C08F2007B0829
:10137C00F1007A08F000080083160313AC002C0867
:10138C000319C929CA29DE29A71FCD29CE29DE298F
:10139C002409AE002509AF002609B0002709B100C9
:1013AC00AE0A0319AF0A0319B00A0319B10AE629E8
:1013BC002708B1002608B0002508AF002408AE00AD
:1013CC002708260425042404031DED29EE29F729FA
:1013DC000030A7000030A6000030A5000030A400AB
:1013EC007B2A9630AD00072A0130A8002808AD07EB
:1013FC0001300310B10CB00CAF0CAE0CFF3E031D52
:10140C00FF29FE303105031D0C2A0D2AFA29292A41
:10141C000130A8002808AD070130AE0700300318D2
:10142C000130AF07003003180130B007003003184B
:10143C000130B10701300310B10CB00CAF0CAE0C85
:10144C00FF3E031D212AFF303105031D2E2A2F2AB2
:10145C000E2A3B2A0130AD020130A8000310AE0D5C
:10146C00AF0DB00DB10DA80B342AB01B3E2A3F2A8C
:10147C00452A02302D020318442A452A302A2D18F9
:10148C00482A492A512AFF30AE05FF30AF057F307C
:10149C00B005FF30B1050310AD0C2D08A800A90153
:1014AC00AA01AB0118300310A80DA90DAA0DAB0DA4
:1014BC00FF3E031D592A2808AE042908AF042A0848
:1014CC00B0042B08B1042C0803196D2A6E2A732A58
:1014DC00A71F712A722A732AB1173108A700300886
:1014EC00A6002F08A5002E08A400080083160317D9
:1014FC009F001B0883160313B900831603171A08E1
:10150C0083160313B80083160317190883160313E5
:10151C00B70083160317180883160313B600403060
:10152C00B5008030B4000030B3000030B2000A12B5
:10153C008A1127200A128A15831603133508D30043
:10154C003408D2003308D1003208D0003630CF0036
:10155C008630CE003730CD00BD30CC000A128A1553
:10156C002D260A128A15831603134F0883160317A8
:10157C009300831603134E088316031792008316E9
:10158C0003134D08831603179100831603134C089D
:10159C008316031790000A168A1172270A128A15ED
:1015AC00831603171108A1001008A0001F03031DC8
:1015BC00E02AE12A1A2B21089D0020089C001D0D11
:1015CC009D0C9C0C1D0D9D0C9C0C1C088312031374
:1015DC00950083160317200801399C009C0E83127A
:1015EC0003131708831603171C06EF391C06831206
:1015FC00031397008316031721089D0020089C00F5
:10160C001D0D9D0C9C0C1C0801399E009E0E9E0D00
:10161C00831203131708831603171E06DF391E06E1
:10162C00831203139700582B02301F06031D1F2B28
:10163C00202B582B21089D0020089C001D0D9D0C73
:10164C009C0C1D0D9D0C9C0C1C08831203139B0001
:10165C0083160317200801399C009C0E8312031378
:10166C001D08831603171C06EF391C06831203137F
:10167C009D008316031721089D0020089C001D0D5A
:10168C009D0C9C0C1C0801399E009E0E9E0D831215
:10169C0003131D08831603171E06DF391E0683125B
:1016AC0003139D0008000A128A1506200A128A15D7
:1016BC00831203139F14423083160313CF00C830D8
:1016CC00CE000030CD000030CC003E30B500C8302C
:1016DC00B400C830B300C930B200831603172A080F
:1016EC0083160313A400831603172B088316031306
:1016FC00A5000030A51BFF30A600A70001300A1280
:10170C008A15C2210A128A15831603132708B900F9
:10171C002608B8002508B7002408B6000A128A115A
:10172C0027200A128A15831603133508D3003408B0
:10173C00D2003308D1003208D0000A128A152D26A7
:10174C000A128A15831603134F0883160317A90070
:10175C00831603134E0883160317A800831603136E
:10176C004D0883160317A700831603134C08831622
:10177C000317A600290883160313B9008316031751
:10178C00280883160313B80083160317270883163B
:10179C000313B70083160317260883160313B6002A
:1017AC004130B500A030B4000030B3000030B200BE
:1017BC000A128A1127200A128A1583160313350878
:1017CC008316031793008316031334088316031729
:1017DC0092008316031333088316031791008316A4
:1017EC00031332088316031790000A168A11722706
:1017FC000A128A1583160317110883160313E900BE
:10180C0083160317100883160313E8006808831265
:10181C00031386009F18132C142C612B1F0C83169A
:10182C000317A300230C0F39003A031D1E2C1F2C89
:10183C00262C831203131F08C33910389F004B2C1E
:10184C00831203131F0C83160317A300230C0F39E9
:10185C00043A031D322C332C3A2C831203131F0829
:10186C00C33908389F004B2C831203131F0C8316AB
:10187C000317A300230C0F39023A031D462C472CE7
:10188C004B2CC330831203139F05C73083160317E9
:10189C00A300502CA30B4F2C532C831203139F1417
:1018AC00612B0A128A11102883120313270880391E
:1018BC00B1002708A8002807B800A61F662C672CC3
:1018CC00682C3814380803196C2C6D2C7D2C380AB4
:1018DC00031D712C722C7A2C0030A7000030A6004E
:1018EC000030A5000030A400A617A701852C0030FD
:1018FC00A7000030A6000030A5000030A40023088B
:10190C008039A8002808B1062308A8002807B900C8
:10191C00A21F912C922C932C391439080319972C53
:10192C00982CA82C390A031D9C2C9D2CA52C00301E
:10193C00A3000030A2000030A1000030A000A217CC
:10194C00A301B02C0030A3000030A2000030A10095
:10195C000030A0002308220421042004031DB72C0E
:10196C00B82CD12C0030A7000030A6000030A50008
:10197C000030A4008030A6047F30A7043108A800F2
:10198C002808A7042708A3002608A2002508A10000
:10199C002408A0002C2E3808031DD52CD62CDF2CA7
:1019AC000030A3000030A2000030A1000030A000E5
:1019BC002C2E3808A800A9012908AB0039082802E8
:1019CC00AA00031CAB032A087F3EB2002B080318A5
:1019DC00013E003EB3002708B0002608AF002508E2
:1019EC00AE002408AD000030A7000030A600003087
:1019FC00A5000030A4000030B7000030B600003065
:101A0C00B5000030B400B901552D390803190F2D5C
:101A1C00102D302D0130A8000310AD0DAE0DAF0D03
:101A2C00B00DA80B122D0130A8000310A40DA50DAC
:101A3C00A60DA70DA80B1B2DB71F252D262D272D69
:101A4C0024140130A8000310B40DB50DB60DB70D5C
:101A5C00A80B292D23083002031D3E2D22082F022E
:101A6C00031D3E2D21082E02031D3E2D20082D02A4
:101A7C00031C412D422D512D37172008AD02210892
:101A8C00031C210FAE022208031C220FAF022308F5
:101A9C00031C230FB0020130A8002808B9071A3024
:101AAC003902031C5A2D5B2D0B2D30082F042E04EC
:101ABC002D040319622D632D822D3414822D0130D7
:101ACC00A8000310A40DA50DA60DA70DA80B672D3E
:101ADC00B71F712D722D732D24140130A800031023
:101AEC00B40DB50DB60DB70DA80B752DFF30B207A3
:101AFC000318B30AFF30B307A61F852D862D652D5D
:101B0C00B901B71F8A2D8B2DA72DFF303405A800E6
:101B1C00FF303505A900FF303605AA007F303705A8
:101B2C00AB002B082A042904280403199E2D9F2D91
:101B3C00A22DB901B90AA72D241CA52DA62DA72DC0
:101B4C009F2D39080319AB2DAC2DDD2D0130A407C9
:101B5C00003003180130A507003003180130A60728
:101B6C00003003180130A707271CBD2DBE2DDD2D1D
:101B7C002408A8002508A9002608AA002708AB00FD
:101B8C000130AC002B0DAB0CAA0CA90CA80CAC0BA7
:101B9C00C82D2B08A7002A08A6002908A50028088C
:101BAC00A4000130B2070318B30A0030B30733089E
:101BBC00803AFF0080307F02031DE62DFF30320299
:101BCC00031CE92DEA2DF82DFF3083120313B2000C
:101BDC000030B3000030A7000030A6000030A50094
:101BEC000030A400831203133308803AFF008030C6
:101BFC007F02031D032E013032020318062E072E1E
:101C0C00142E83120313B201B3010030A70000306D
:101C1C00A6000030A5000030A400B101831203130C
:101C2C003208B800381C1B2E1C2E1E2EA617222E76
:101C3C007F30A8002808A6053808A8000310280C37
:101C4C00A7003108A8002808A704C82C0800831690
:101C5C00031353088039DD005308D4005407E40003
:101C6C00D21F392E3A2E3B2E6414640803193F2ED2
:101C7C00402E502E640A031D442E452E4D2E00304E
:101C8C00D3000030D2000030D1000030D000D21789
:101C9C00D301582E0030D3000030D2000030D100D8
:101CAC000030D0004F088039D4005408DD064F08AE
:101CBC00D4005407E500CE1F642E652E662E6514E5
:101CCC00650803196A2E6B2E7B2E650A031D6F2E79
:101CDC00702E782E0030CF000030CE000030CD00BA
:101CEC000030CC00CE17CF01832E0030CF00003057
:101CFC00CE000030CD000030CC004F084E044D0417
:101D0C004C04031D8A2E8B2EA42E0030D3000030E1
:101D1C00D2000030D1000030D0008030D2047F30AF
:101D2C00D3045D08D4005408D3045308CF005208E0
:101D3C00CE005108CD005008CC00FF2F6408031DC5
:101D4C00A82EA92EB22E0030CF000030CE000030CD
:101D5C00CD000030CC00FF2F6408D400D50155080D
:101D6C00D70065085402D600031CD70356087F3EE3
:101D7C00DE0057080318013E003EDF005308DC006C
:101D8C005208DB005108DA005008D9000030D300AB
:101D9C000030D2000030D1000030D0000030E30021
:101DAC000030E2000030E1000030E000E501282FB7
:101DBC0065080319E22EE32E032F0130D400031023
:101DCC00D90DDA0DDB0DDC0DD40BE52E0130D40072
:101DDC000310D00DD10DD20DD30DD40BEE2EE31F6D
:101DEC00F82EF92EFA2E50140130D4000310E00D09
:101DFC00E10DE20DE30DD40BFC2E4F085C02031D2C
:101E0C00112F4E085B02031D112F4D085A02031DA2
:101E1C00112F4C085902031C142F152F242F631754
:101E2C004C08D9024D08031C4D0FDA024E08031C56
:101E3C004E0FDB024F08031C4F0FDC020130D400A5
:101E4C005408E5071A306502031C2D2F2E2FDE2EA9
:101E5C005C085B045A0459040319352F362F552F8F
:101E6C006014552F0130D4000310D00DD10DD20DBC
:101E7C00D30DD40B3A2FE31F442F452F462F50146C
:101E8C000130D4000310E00DE10DE20DE30DD40B95
:101E9C00482FFF30DE070318DF0AFF30DF07D21FA1
:101EAC00582F592F382FE501E31F5D2F5E2F7A2F06
:101EBC00FF306005D400FF306105D500FF306205AE
:101ECC00D6007F306305D7005708560455045404D8
:101EDC000319712F722F752FE501E50A7A2F501C0B
:101EEC00782F792F7A2F722F650803197E2F7F2F69
:101EFC00B02F0130D007003003180130D10700306B
:101F0C0003180130D207003003180130D307531CDB
:101F1C00902F912FB02F5008D4005108D5005208A3
:101F2C00D6005308D7000130D800570DD70CD60C6B
:101F3C00D50CD40CD80B9B2F5708D3005608D200C5
:101F4C005508D1005408D0000130DE070318DF0A11
:101F5C000030DF075F08803AFF0080307F02031DEE
:101F6C00B92FFF305E02031CBC2FBD2FCB2FFF30CF
:101F7C0083160313DE000030DF000030D300003086
:101F8C00D2000030D1000030D000831603135F085C
:101F9C00803AFF0080307F02031DD62F01305E0295
:101FAC000318D92FDA2FE72F83160313DE01DF0175
:101FBC000030D3000030D2000030D1000030D0000F
:101FCC00DD01831603135E08E400641CEE2FEF2F73
:101FDC00F12FD217F52F7F30D4005408D2056408A6
:101FEC00D4000310540CD3005D08D4005408D3045F
:041FFC009B2E080010
:102BF600013083160313EA070318EB0A0030EB07CC
:102C06007108803AF2006B08803A7202031D0D2E9D
:102C16006A087002031C102E112E152E8312031340
:102C260087151C2E83120313871183160313EA01DB
:102C3600EB010800F800F401F5017008F200F30159
:102C46007208F6007308F700781C2A2E2B2E312EF8
:102C56007608F4070318F50A7708F507013003101C
:102C6600F60DF70DFF3E031D322E0310F80C780803
:102C7600031D3E2E3F2E272E7508F1007408F00026
:102C8600080083160313AC00A801A9012408A600B6
:102C9600A7012608AA002708AB002C1C532E542E89
:102CA6005A2E2A08A8070318A90A2B08A9070130D3
:102CB6000310AA0DAB0DFF3E031D5B2E0310AC0CDB
:102CC6002C08031D672E682E502E2908A5002808FB
:102CD600A4000800031083120313560D570DDD00E0
:102CE6005D08031D772E782E812E0030D700003028
:102CF600D6000030D5000030D400E42E5408D800A9
:102D06005508D9005608DA005708DB001F300310B3
:102D1600DB0CDA0CD90CD80CFF3E031D8A2E5808A2
:102D2600DC00D617FF30D405FF30D505FF30D605B9
:102D36000030D7059630DD02DD1FA22EA32EBD2E54
:102D46005D08803A973E0318A92EAA2EAB2E782E40
:102D560001300310D70CD60CD50CD40CFF3E031D46
:102D6600AC2E0130D8005808DD07031DBB2EBC2E43
:102D7600AB2ED42E20305D02031CC22EC32ECF2EC6
:102D8600782E0130D8000310D40DD50DD60DD70DF1
:102D9600D80BC62E0130DD025D08031DD32ED42EBE
:102DA600C42E5C080319D82ED92EE42ED409D509D1
:102DB600D609D709D40A0319D50A0319D60A03195D
:102DC600D70A0800831603179C001B0883160313F3
:102DD600D300831603171A0883160313D20083162B
:102DE6000317190883160313D1008316031718084F
:102DF60083160313D0003730CF008630CE0037302D
:102E0600CD00BD30CC000A128A152D260A168A116D
:102E1600831603134F0883160317930083160313B1
:102E26004E08831603179200831603134D08831664
:102E360003179100831603134C088316031790009B
:102E46000A168A1172270A168A11831603171008A2
:102E5600831603139200831603171C03031D342FD6
:102E6600352F452F8316031307153F30831203139F
:102E760097051708F0390C3897000F309500171290
:102E86009712582F02301C06031D4A2F4B2F582F1E
:102E9600831603138714831203131D08F0390C38A5
:102EA6009D000F309B001D129D12831203138C1080
:102EB6000330920412158C1C612F622F5E2F8C102A
:102EC600831603171C03031D692F6A2F6E2F8316A3
:102ED60003130711712F83160313871008000310BD
:102EE60083160317120D130D83160313E7006708E5
:102EF600031D7E2F7F2F8A2F003083160317930022
:102F0600003092000030910000309000FF2F8316B1
:102F1600031710089400110895001208960013086C
:102F260097001F300310970C960C950C940CFF3EDF
:102F3600031D952F140883160313E6008316031743
:102F46009217FF309005FF309105FF309205003053
:102F56009305963083160313E702E71FB32FB42FAA
:102F6600D22F6708803A973E0318BA2FBB2FBC2F83
:102F76007F2F0130031083160317930C920C910CCC
:102F8600900CFF3E031DBD2F0130940014088316DC
:102F96000313E707031DD02FD12FBC2FED2F2030B1
:102FA6006702031CD72FD82FE82F7F2F01308316F7
:102FB600031794000310900D910D920D930D940B31
:102FC600DD2F013083160313E7026708031DEC2F7C
:102FD600ED2FD92F66080319F12FF22FFF2F831635
:102FE60003179009910992099309900A0319910A06
:0A2FF6000319920A0319930A080058
:08400000FF3FFF3FFF3FFF3FC0
:04400E00D420FF3F7C
:00000001FF
