:060000000A128A110C280F
:10000800FE00030EF5000A08F6000A128A15E22E11
:100018000A128A110F28F701F801F901FA01FB0108
:10002800FC0183160313A801A901AA01AB01AC01C5
:10003800AD0183010A128A11392D83120313310885
:100048008039BB003108B6003607C100B01F2D2823
:100058002E282F284114410803193328342843280F
:10006800410A031D3828392841280030B1000030E2
:10007800B0000030AF000030AE00B0174B280030A1
:10008800B1000030B0000030AF000030AE003508DD
:100098008039B6003608BB063508B6003607C000FA
:1000A800B41F5728582859284014400803195D28B8
:1000B8005E286D28400A031D622863286B280030DB
:1000C800B5000030B4000030B3000030B200B417FF
:1000D80075280030B5000030B4000030B30000309F
:1000E800B2004008031979287A287F284108031D9F
:1000F8007E287F2888280030B1000030B00000300A
:10010800AF000030AE00652B2E08A00034080A129C
:100118008A15B9260A128A11831203132108C70007
:100128002008C6004608B600B701B801B901390869
:10013800BF003808BE003708BD003608BC004708B5
:10014800B600B701B801B9013908C5003808C400BC
:100158003708C3003608C2002F08A00033080A1267
:100168008A15B9260A128A11831203132108C700B7
:100178002008C6004608B600B701B801B90136081C
:10018800BC07370803110318013E0319CC28BD0723
:10019800380803110318013E0319D328BE0739088C
:1001A80003110318013E0319DA28BF074708B600F0
:1001B800B701B801B9013608C20737080311031897
:1001C800013E0319E828C307380803110318013E44
:1001D8000319EF28C407390803110318013E03194E
:1001E800F628C5073008A00032080A128A15B92671
:1001F8000A128A11831203132108C7002008C600B7
:100208004608B600B701B801B9013608BC07370877
:1002180003110318013E03191229BD0738080311F9
:100228000318013E03191929BE07390803110318D9
:10023800013E03192029BF074708B600B701B801D6
:10024800B9013608C207370803110318013E03191C
:100258002E29C307380803110318013E031935294D
:10026800C407390803110318013E03193C29C507BF
:100278000830B6000310BC0DBD0DBE0DBF0DB60B8A
:100288003E292F08A00032080A128A15B9260A1238
:100298008A11831203132108C7002008C6004608E4
:1002A800B6004708B700B801B9013608BC073708D7
:1002B80003110318013E03196229BD073808031109
:1002C8000318013E03196929BE07390803110318E9
:1002D800013E03197029BF072E08A00033080A122F
:1002E8008A15B9260A128A11831203132108C70036
:1002F8002008C6004608B6004708B700B801B9018B
:100308003608BC07370803110318013E03198D2965
:10031800BD07380803110318013E03199429BE07C5
:10032800390803110318013E03199B29BF07083038
:10033800B6000310BC0DBD0DBE0DBF0DB60B9D293B
:100348002E08A00032080A128A15B9260A128A1144
:10035800831203132108C7002008C6004608B60008
:100368004708B700B801B9013608BC0737080311B8
:100378000318013E0319C129BD07380803110318E2
:10038800013E0319C829BE07390803110318013EA5
:100398000319CF29BF072F08A00034080A128A15AD
:1003A800B9260A128A11831203132108C7002008EC
:1003B800C6004608B6004708B700B801B9013608B4
:1003C800C207370803110318013E0319EC29C307B4
:1003D800380803110318013E0319F329C407390823
:1003E80003110318013E0319FA29C5073008A000B4
:1003F80033080A128A15B9260A128A1183120313BE
:100408002108C7002008C6004608B6004708B700FC
:10041800B801B9013608C207370803110318013EAD
:100428000319172AC307380803110318013E0319D3
:100438001E2AC407390803110318013E0319252A87
:10044800C5073008A00034080A128A15B9260A120E
:100458008A11831203132108C7002008C600460822
:10046800B6004708B700B801B90108300310B60D47
:10047800B70DB80DB90DFF3E031D3A2A3608C2075D
:10048800370803110318013E03194B2AC30738081C
:1004980003110318013E0319522AC407390803112E
:1004A8000318013E0319592AC5073C08B6003D0840
:1004B800B7003E08B8003F08B90018300310B90C5F
:1004C800B80CB70CB60CFF3E031D622A3608C207EB
:1004D800370803110318013E0319732AC3073808A4
:1004E80003110318013E03197A2AC40739080311B6
:1004F8000318013E0319812AC5070830B600031006
:10050800BC0DBD0DBE0DBF0DB60B832A41084007BB
:10051800B600B701B70D3608823EC6003708031883
:10052800013EFF3EC700B52A0130B6000310C20DD8
:10053800C30DC40DC50DB60B9A2ABF1FA42AA52A40
:10054800A62A42140130B6000310BC0DBD0DBE0D25
:10055800BF0DB60BA82AFF30C6070318C70AFF301D
:10056800C707C41FB82AB92A982AC001BF1FBD2AC5
:10057800BE2ADA2AFF303C05B600FF303D05B70039
:10058800FF303E05B8007F303F05B9003908380410
:10059800370436040319D12AD22AD52AC001C00A41
:1005A800DA2A421CD82AD92ADA2AD22A4008031978
:1005B800DE2ADF2A102B0130C20700300318013071
:1005C800C307003003180130C40700300318013096
:1005D800C507451CF02AF12A102B4208B60043082B
:1005E800B7004408B8004508B9000130BA00390D11
:1005F800B90CB80CB70CB60CBA0BFB2A3908C500F5
:100608003808C4003708C3003608C2000130C607DE
:100618000318C70A0030C7074708803AFF00803030
:100628007F02031D192BFF304602031C1C2B1D2BB8
:10063800282B7F3083120313C5008030C40000309C
:10064800C3000030C200592B831203134708803AB5
:10065800FF0080307F02031D332B01304602031850
:10066800362B372B432B003083120313C500003081
:10067800C4000030C3000030C200BB01592B8312F4
:1006880003134608C100FF30C205FF30C3057F30A1
:10069800C4050030C505411C522B532B542BC417DD
:1006A8004108B6000310360CC5003B08B6003608F2
:1006B800C5044508B1004408B0004308AF0042082B
:1006C800AE000800831203134F088039D9004F0881
:1006D800D0005007E000CE1F722B732B742B6014D0
:1006E80060080319782B792B892B600A031D7D2B51
:1006F8007E2B862B0030CF000030CE000030CD009E
:100708000030CC00CE17CF01912B0030CF00003045
:10071800CE000030CD000030CC004B088039D0002E
:100728005008D9064B08D0005007E100CA1F9D2B7E
:100738009E2B9F2B611461080319A32BA42BB42BA8
:10074800610A031DA82BA92BB12B0030CB00003068
:10075800CA000030C9000030C800CA17CB01BC2B42
:100768000030CB000030CA000030C9000030C8009B
:100778004B084A0449044804031DC32BC42BDD2B32
:100788000030CF000030CE000030CD000030CC006B
:100798008030CE047F30CF045908D0005008CF04F1
:1007A8004F08CB004E08CA004D08C9004C08C800C5
:1007B800382D6008031DE12BE22BEB2B0030CB001A
:1007C8000030CA000030C9000030C800382D600869
:1007D800D000D1015108D30061085002D200031C97
:1007E800D30352087F3EDA0053080318013E003E47
:1007F800DB004F08D8004E08D7004D08D6004C083B
:10080800D5000030CF000030CE000030CD000030E1
:10081800CC000030DF000030DE000030DD000030AA
:10082800DC00E101612C610803191B2C1C2C3C2CF9
:100838000130D0000310D50DD60DD70DD80DD00B33
:100848001E2C0130D0000310CC0DCD0DCE0DCF0DD8
:10085800D00B272CDF1F312C322C332C4C140130B9
:10086800D0000310DC0DDD0DDE0DDF0DD00B352CB7
:100878004B085802031D4A2C4A085702031D4A2CEC
:1008880049085602031D4A2C48085502031C4D2CE2
:100898004E2C5D2C5F174808D5024908031C490FE8
:1008A800D6024A08031C4A0FD7024B08031C4B0FF9
:1008B800D8020130D0005008E1071A306102031C49
:1008C800662C672C172C580857045604550403192E
:1008D8006E2C6F2C8E2C5C148E2C0130D0000310E3
:1008E800CC0DCD0DCE0DCF0DD00B732CDF1F7D2C75
:1008F8007E2C7F2C4C140130D0000310DC0DDD0D54
:10090800DE0DDF0DD00B812CFF30DA070318DB0A70
:10091800FF30DB07CE1F912C922C712CE101DF1FD9
:10092800962C972CB32CFF305C05D000FF305D056A
:10093800D100FF305E05D2007F305F05D300530839
:100948005204510450040319AA2CAB2CAE2CE1011B
:10095800E10AB32C4C1CB12CB22CB32CAB2C610883
:100968000319B72CB82CE92C0130CC070030031838
:100978000130CD07003003180130CE0700300318CE
:100988000130CF074F1CC92CCA2CE92C4C08D000C9
:100998004D08D1004E08D2004F08D3000130D400D2
:1009A800530DD30CD20CD10CD00CD40BD42C53082F
:1009B800CF005208CE005108CD005008CC000130BD
:1009C800DA070318DB0A0030DB075B08803AFF0010
:1009D80080307F02031DF22CFF305A02031CF52CD5
:1009E800F62C042DFF3083120313DA000030DB00ED
:1009F8000030CF000030CE000030CD000030CC00F9
:100A0800831203135B08803AFF0080307F02031DC6
:100A18000F2D01305A020318122D132D202D831289
:100A28000313DA01DB010030CF000030CE000030C4
:100A3800CD000030CC00D901831203135A08E0001E
:100A4800601C272D282D2A2DCE172E2D7F30D00063
:100A58005008CE056008D0000310500CCF0059088C
:100A6800D0005008CF04D42B08000A128A15992701
:100A78000A128A11831203139F144230CB00C83024
:100A8800CA000030C9000030C8003E30B100C8308C
:100A9800B000C830AF00C930AE00831603132C086D
:100AA80083120313A000831603132D088312031364
:100AB800A1000030A11BFF30A200A30001300A12E0
:100AC8008A1124260A128A11831203132308B500F7
:100AD8002208B4002108B3002008B2000A128A11C3
:100AE80021200A128A11831203133108CF0030081B
:100AF800CE002F08CD002E08CC000A128A116623DA
:100B08000A128A11831203134B0883160313AB00CE
:100B1800831203134A0883160313AA0083120313CC
:100B2800490883160313A900831203134808831680
:100B38000313A8002B0883120313B50083160313AD
:100B48002A0883120313B400831603132908831297
:100B58000313B30083160313280883120313B20088
:100B68004130B100A030B0000030AF000030AE001E
:100B78000A128A1121200A128A11831203133108DA
:100B8800E5003008E4002F08E3002E08E2000A120E
:100B98008A117E270A128A11831203136308FA0046
:100BA8006208F900790886009F18DB2DDC2D412D9D
:100BB8001F0C83160313A600260C0F39003A031DD9
:100BC800E62DE72DEE2D831203131F08C3391038C5
:100BD8009F00132E831203131F0C83160313A60002
:100BE800260C0F39043A031DFA2DFB2D022E831211
:100BF80003131F08C33908389F00132E83120313E9
:100C08001F0C83160313A600260C0F39023A031D86
:100C18000E2E0F2E132EC330831203139F0503309D
:100C280083160313A7009730A600A60B192EA70B4F
:100C3800192E831203139F14412D0A128A110C28AE
:100C480083120313A800280803192B2E2C2E402EDC
:100C5800A31F2F2E302E402E2009AA002109AB00F9
:100C68002209AC002309AD00AA0A0319AB0A03192B
:100C7800AC0A0319AD0A482E2308AD002208AC00BF
:100C88002108AB002008AA0023082204210420041C
:100C9800031D4F2E502E592E0030A3000030A20005
:100CA8000030A1000030A000DD2E9630A900692E8A
:100CB8000130A4002408A90701300310AD0CAC0CC6
:100CC800AB0CAA0CFF3E031D612EFE302D05031D43
:100CD8006E2E6F2E5C2E8B2E0130A4002408A907DF
:100CE8000130AA07003003180130AB0700300318A1
:100CF8000130AC07003003180130AD070130031094
:100D0800AD0CAC0CAB0CAA0CFF3E031D832EFF30C0
:100D18002D05031D902E912E702E9D2E0130A902B7
:100D28000130A4000310AA0DAB0DAC0DAD0DA40B42
:100D3800962EAC1BA02EA12EA72E02302902031836
:100D4800A62EA72E922E2918AA2EAB2EB32EFF3030
:100D5800AA05FF30AB057F30AC05FF30AD050310A9
:100D6800A90C2908A400A501A601A70118300310A1
:100D7800A40DA50DA60DA70DFF3E031DBB2E24082F
:100D8800AA042508AB042608AC042708AD042808E3
:100D98000319CF2ED02ED52EA31FD32ED42ED52E69
:100DA800AD172D08A3002C08A2002B08A1002A08C3
:100DB800A000080083160313A200831203136F0810
:100DC800CF006E08CE006D08CD006C08CC00003056
:100DD800CB000030CA000030C9000030C8000A1239
:100DE8008A1166230A128A11831203134B08E5003D
:100DF8004A08E4004908E3004808E2000A128A1198
:100E08007E270A128A1183120313620883160313BA
:100E1800A3002203031D112F122F452F2308A00022
:100E280002300310A00CFF3E031D152F200883126B
:100E3800031395008316031323080139A000A00E9D
:100E4800831203131708831603132006EF392006AD
:100E5800831203139700831603132308A0000310BB
:100E6800200C0139A100A10EA10D8312031317084C
:100E7800831603132106DF39210683120313970013
:100E88007D2F02302206031D4A2F4B2F7D2F23086A
:100E9800A00002300310A00CFF3E031D4E2F2008B7
:100EA800831203139B008316031323080139A00040
:100EB800A00E831203131D08831603132006EF39AF
:100EC8002006831203139D00831603132308A00032
:100ED8000310200C0139A100A10EA10D83120313E8
:100EE8001D08831603132106DF3921068312031315
:100EF8009D000800031083120313640D650DEB00B9
:100F08006B08031D882F892F922F0030E5000030D1
:100F1800E4000030E3000030E200F52F6208E6004C
:100F28006308E7006408E8006508E9001F3003105B
:100F3800E90CE80CE70CE60CFF3E031D9B2F660846
:100F4800EA00E417FF30E205FF30E305FF30E4056F
:100F58000030E5059630EB02EB1FB32FB42FCE2FF0
:100F68006B08803A973E0318BA2FBB2FBC2F892FE6
:100F780001300310E50CE40CE30CE20CFF3E031D0A
:100F8800BD2F0130E6006608EB07031DCC2FCD2FDF
:100F9800BC2FE52F20306B02031CD32FD42FE02F5A
:100FA800892F0130E6000310E20DE30DE40DE50D95
:100FB800E60BD72F0130EB026B08031DE42FE52F5A
:100FC800D52F6A080319E92FEA2FF52FE209E3095B
:100FD800E409E509E20A0319E30A0319E40A031913
:040FE800E50A08000E
:101D36000130FB070318FC0A0030FC077108803AE3
:101D4600F2007C08803A7202031DAB2E7B087002FB
:101D5600031CAE2EAF2EB32E831203138715B82E97
:101D6600831203138711FB01FC010800831203137E
:101D7600A800A401A5012008A200A3012208A6002C
:101D86002308A700281CC82EC92ECF2E2608A40774
:101D96000318A50A2708A50701300310A60DA70DED
:101DA600FF3E031DD02E0310A80C2808031DDC2EB1
:101DB600DD2EC52E2508A1002408A00008000B1D55
:101DC600E52EE62EF42E7A08F1007908F0000A12C4
:101DD6008A159B260A128A150B1162308312031389
:101DE6008100831203130C1FF92EFA2E2E2F1F0CBF
:101DF600F300730C0F39003A031D022F032F0A2F2D
:101E06001E08F3000310730C7C3E95002C2F1F0C4C
:101E1600F300730C0F39043A031D122F132F1A2FD8
:101E26001E08F3000310730C7C3E9B002C2F1F0C26
:101E3600F300730C0F39023A031D222F232F2C2F88
:101E46001E08F300F401730883160313AC0074082C
:101E5600AD0083120C1376088A00750E8300FE0E01
:101E66007E0E090083160313A0008714071583123C
:101E760003136F08CF006E08CE006D08CD006C0806
:101E8600CC000030CB000030CA000030C900003062
:101E9600C8000A128A1166230A128A1583120313CE
:101EA6004B08E5004A08E4004908E3004808E20058
:101EB6000A128A117E270A128A15831203136208F0
:101EC6008316031392002003031D6A2F6B2F782FAE
:101ED6003F308312031397051708F0390D38970022
:101EE6000F309500171297128A2F02302006031D15
:101EF6007D2F7E2F8A2FF030831203139D051D0838
:101F0600F0390C389D000F309B001D129D12831274
:101F16008C100330920412158C1C922F932F8F2F46
:101F26008C108316031387100711080083160317F6
:101F360008140815081689018316031386018701FC
:101F460088018901831203138501860187018801AF
:101F560089017030831603138F040F1481128111C7
:101F660001158114011462308312031381008B174B
:101F76000B17831603130C17831203130C139F14EA
:101F8600C3309F05831603131F129F128312031378
:101F96001F083F3980389F00831603139F1383124F
:101FA60003131F14033083160313A5009730A400F0
:101FB600A40BDB2FA50BDB2F3C3083120313EF00A2
:101FC600A330EE00D730ED000A30EC0001300A12E3
:101FD6008A1535270A128A153C3083120313EF003F
:101FE6002330EE00D730ED000A30EC0001300A1243
:0A1FF6008A11DE260A128A1508007F
:08400000FF3FFF3FFF3FFF3FC0
:04400E00D420FF3F7C
:00000001FF
